:100000000C943F160C9469160C9469160C9469169E
:100010000C9469160C9469160C9469160C94691664
:100020000C9469160C9469160C9469160C94691654
:100030000C9469160C94DCB40C9469160C94691633
:100040000C9469160C941B7F0C9469160C94691619
:100050000C9469160C9469160C949CB90C941BD5DD
:100060000C9469160C940BC10C9469160C946916C7
:100070000C9469160C9469160C9469160C94691604
:100080000C9469160C9469160C9469160C946916F4
:100090000C9469160C9469160C9469160C947338B8
:1000A0000C9469160C9469160C9469160C946916D4
:1000B0000C9469160C9469160C9469160C946916C4
:1000C0000C9469160C9469160C9469160C946916B4
:1000D0000C9469160C9469160C94FED50C94691650
:1000E0000C94691609DE09DE10DE10DE10DE17DE64
:1000F00017DE17DE24DE1EDE1EDE1EDEF04C0B4D8C
:10010000104D2C4D374D444D824D1E4D004E134E1B
:10011000334E7A4EF44E104F664F904FAA4FF14F28
:1001200021C526C563C523C51EC565C56DC518D3C4
:100130001BD30AD30ED314D352D31FD323D329D323
:100140002DD331D337D33BD33FD352D345D349D328
:100150004DD335D43AD43FD449D453D4CCD45DD440
:1001600065D46DD477D481D48BD49AD4A4D4CCD490
:10017000AED4B8D4C2D405A84CCDB2D44EB938361A
:10018000A9020C50B9918688083CA6AAAA2ABE00EA
:100190000000803F4E414E494E495459494E46CD8C
:1001A000CCCC3D0AD7233C17B7D13877CC2B32952E
:1001B00095E6241FB14F0A000020410000C842000C
:1001C000401C4620BCBE4CCA1B0E5AAEC59D7400D6
:1001D000407A10F35A00A0724E18090010A5D4E816
:1001E0000000E87648170000E40B54020000CA9AA9
:1001F0003B000000E1F505000080969800000040FB
:10020000420F000000A0860100000010270000003F
:1002100000E803000000006400000000000A000085
:100220000000000100000000002C76D888DC674F39
:100230000823DFC1DFAE59E1B1B796E5E3E453C669
:100240003AE651997696E8E6C28426EB898C9B6261
:10025000ED407C6FFCEFBC9C9F40F2BAA56FA5F40B
:1002600090055A2AF75C936B6CF9676DC11BFCE033
:10027000E40D47FEF520E6B500D0ED902E03009486
:100280003577050080841E080000204E0A0000001B
:10029000C80C333333330F986E12831141EF8D2125
:1002A00014893BE65516CFFEE6DB18D1844B381B8C
:1002B000F77C1D901DA4BBE424203284725E228151
:1002C00000C9F124ECA1E53D27434F4D4D554E4962
:1002D000434154494F4E0044525952554E004552E5
:1002E000524F525300494E464F004543484F004835
:1002F0006F6D652058592066697273740A000A0A86
:10030000426564204C6576656C20436F727265634C
:1003100074696F6E204D61747269783A00202844C8
:10032000525952554E2900473239204175746F2079
:10033000426564204C6576656C696E67003F28569F
:10034000296572626F7365206C6576656C206973D0
:1003500020696D706C61757369626C652028302D41
:1003600034292E0A00205A3A200020593A2000420F
:10037000656420583A2000456E642066696C6520EB
:100380006C6973740A00426567696E2066696C6502
:10039000206C6973740A0043757272656E7420660E
:1003A000696C653A2000EA02E502DE02D702C90262
:1003B0006F66660044454255473A004B494C4C45F0
:1003C000442E20006F6B0050533A310A0050533ACC
:1003D000300A00706F776572206F66662E2E2E00D1
:1003E0002C20002C20002F2F200020540020520011
:1003F000416363656C65726174696F6E3A20500089
:10040000546F6F206661722066726F6D2072656630
:100410006572656E636520706F696E740A002046B0
:100420006C6F773A20000001373638FF30FFFFFF4E
:100430003B3A3CFF2EFFFFFF3F3E402BFFFFFFFFFD
:10044000FFFF1C2D2CFFFFFF19181AFFFFFF2D4582
:100450000607FF50726F6265205A204F666673650B
:10046000743A200020643A0020693A0020703A0073
:10047000496E76616C696420657874727564657222
:100480000A0043290A0061626C656420286D696E68
:100490002074656D702000436F6C64206578747201
:1004A000756465732061726520004E6F206361730F
:1004B00065206C696768740A00426564204C657643
:1004C000656C696E6720004661696C656420746FB5
:1004D00020656E61626C6520426564204C657665BE
:1004E0006C696E670A00426564204C6576656C2015
:1004F000436F7272656374696F6E204D61747269C7
:10050000783A00454550524F4D204F4B0A00416309
:10051000746976652045787472756465723A200056
:10052000496E76616C696420657874727564657271
:100530000A0000000A0B02090C0D0E080703040153
:1005400000000000000000000000000000000000AB
:100550000000000000000000000000000000121178
:10056000100000000000000000000000000000007B
:10057000000000000000000000000000000000007B
:1005800000003333333F0000803F9A99993E0000CA
:10059000803F0000803F4D313800473238205820DE
:1005A0005920463230303020523230002020506CFA
:1005B000616E6E65724275666665724279746573C6
:1005C0003A20002046726565204D656D6F72793A5C
:1005D0002000436F6D70696C65643A204465632048
:1005E000203320323031390A00207C204175746874
:1005F0006F723A20286E6F6E652C20646566617597
:100600006C7420636F6E666967290A003230313975
:100610002D30342D303100204C61737420557064BE
:10062000617465643A2000322E312E300A0045563E
:100630004F0020536F667477617265205265736551
:10064000740A00205761746368646F672052657391
:1006500065740A002042726F776E206F75742052A5
:10066000657365740A002045787465726E616C204C
:1006700052657365740A00506F77657255700A0091
:1006800073746172740A006175746F25692E670056
:100690006572726F722077726974696E6720746F09
:1006A0002066696C650A00205A3A0020593A0020F9
:1006B000583A00656E6473746F7073206869743A99
:1006C000200057323039005732303300446F6E65A6
:1006D00020736176696E672066696C652E0A004D2D
:1006E0003239004572726F722077726974696E6771
:1006F00020746F20454550524F4D210A004545500A
:10070000524F4D206461746173697A65206572721D
:100710006F722E0A002053697A653A2000496E6490
:1007200065783A2000CA080000CA0800006400008A
:100730000020030000000048430000484300002060
:100740004100007042AE47BC42AE47BC4200004888
:10075000445C8FBA42545249474745524544006F62
:1007600070656E003A200066696C616D656E74009C
:100770007A5F6D696E00795F6D617800785F6D6199
:1007800078005265706F7274696E6720656E64736D
:10079000746F70207374617475730A00706F77657D
:1007A00072206F66662E2E2E004D3132350020509D
:1007B00061757365207072696E74696E672E2E2E76
:1007C000002F2F616374696F6E3A70617573650AEB
:1007D000004D31323500204D50657263656E743ABC
:1007E00000204D54696D653A00204D46696C653AAC
:1007F000004D5374617475733A0057726974696E71
:100800006720746F2066696C653A20006F70656EB2
:10081000206661696C65642C2046696C653A20002D
:100820002066696C653A2000617070656E64004EE8
:100830006F77200020204261636B20005072696E48
:100840007465722053657474696E6700204F746814
:1008500065722046696C616D656E7400414253009B
:10086000504C410046696C616D656E74205479701E
:1008700065004D3130342053300047393220453047
:10088000004D3130342053323630004D3130342079
:1008900053323335004D313034205332313000473C
:1008A0003120452D3430204633303000473120454B
:1008B0003520463130300046696C616D656E7420BC
:1008C00072657472616374696E672E2E2E004731F3
:1008D000204531383020463230300046696C616D39
:1008E000656E742066656564696E672E2E2E0047FE
:1008F0003932204530004D3130342053323630000B
:10090000323630A1E6004D313034205332333500D9
:10091000323335A1E6004D313034205332313000CE
:10092000323130A1E60020204261636B200048652F
:100930006174696E672E2E2E00506C6561736520A0
:1009400077616974206120666577206D696E7574C2
:1009500065730046696C616D656E742052657472D2
:1009600061637400496E73657274207468652066F3
:10097000696C616D656E7420616E64207761697465
:100980002061207768696C650046696C616D656EF1
:10099000742046656564004D343130004D3130348B
:1009A000205330007C3C3E5E2B3D3F2F5B5D3B2C5B
:1009B0002A225C004F4646004F4E004D313800471A
:1009C00032380041726520796F7520737572652029
:1009D000746F20726573746F726520746865206629
:1009E0006163746F72792073657474696E67733FA5
:1009F00000200020205945530020204E4F00436F17
:100A00006E6669726D00466F756E6420746865204D
:100A1000736176652070726F67726573732C002046
:100A20000020205945530020204E4F00436F6E6632
:100A300069726D004D32342053256C642054256C4E
:100A400064004D3233202573004D34323020533151
:100A5000004732382058205920463230303020525A
:100A60003000526573756D696E67207072696E74BF
:100A70002070726F67726573732E2E2E005361762D
:100A8000696E67207072696E742070726F6772652C
:100A900073732E2E2E0047323820582059204632AC
:100AA0003030300020204261636B200053656C655C
:100AB0006374205072696E742046696C6500473219
:100AC0003820582046323030300048656174696EF5
:100AD000672E2E2E0054656D706572617475726597
:100AE0002063616E27742062652072656164210055
:100AF0005A204178697320486F6D696E673A0059D2
:100B0000204178697320486F6D696E673A005820FC
:100B10004178697320486F6D696E673A0052756E4F
:100B20006F75742053656E736F723A00426564206E
:100B300048656174696E673A004E6F7A7A6C652019
:100B400048656174696E673A002020536B697000D4
:100B5000506F7374004D3138004731205A353020C2
:100B60004635303000486F6D696E67204661696CAC
:100B7000210046696C616D656E74204F4B004E4FCD
:100B80002046696C616D656E740020004865617473
:100B9000696E67206661696C210052656D61696EDE
:100BA000696E672074696D653A0050726570617294
:100BB000696E6720746F207475726E206F66662090
:100BC000746865207072696E7465722E0020205101
:100BD000756974005072657061726520506F776539
:100BE000726F66660020204F4B005365742054617D
:100BF000726765742054656D706572617475726595
:100C000000426564004E6F7A7A6C65002043616E25
:100C100063656C002053657474696E670048656194
:100C200074696E670020204261636B200050726916
:100C30006E746572204D61696E74656E616E636578
:100C4000006C6F61642073637265656E20707265FD
:100C5000706172650A004D383400416C6C206D6F14
:100C6000746F72206F757470757473206172652073
:100C70006F66662E00257568253032756D0025304B
:100C8000327568253032756D0025756425303275F2
:100C900068253032756D005573696E672046696C42
:100CA000616D656E743A005072696E742054696D9E
:100CB000653A0046696C656E616D653A0020507258
:100CC000696E7420416761696E00202051756974F6
:100CD000005072696E7420436F6D706C657465644A
:100CE000005072696E74696E672053657474696E22
:100CF00067002046696C616D656E74205265747280
:100D000061637400202046696C616D656E742046D5
:100D10006565640046696C616D656E74204F706531
:100D2000726174696F6E00426564004E6F7A7A6C0E
:100D3000650020204F4B002043616E63656C0053BB
:100D40006574205461726765742054656D706572B6
:100D5000617475726500506C6561736520706175B2
:100D60007365206265666F72652070726F6365657A
:100D700064696E670020204261636B20004E6F74CF
:100D8000696365004731205A3020463130300047D2
:100D900031205A313020463530300047312058312B
:100DA0003030205938302046333030300047323828
:100DB000006669782074686520706F736974696F64
:100DC0006E206F662070726F78696D6974792E205D
:100DD00043757272656E74207374617475732069E3
:100DE000733A006F662070726F78696D6974792C40
:100DF00020756E74696C20746865207377697463FC
:100E000068206973207475726E6564206F6E2E2081
:100E10005468656E006973206F66662C206C6F6F76
:100E200073656E2074686520736372657720616EE8
:100E3000642066696E652D74756E65207468652022
:100E4000686569676874004166746572206D6F76C5
:100E5000696E672C207468652070726F78696D699F
:100E600074792073686F756C64206265206F6E2ED4
:100E70002049662069740020204261636B20005085
:100E8000726F78696D697479204865696768742044
:100E900041646A7573746D656E740020636F6C6471
:100EA00020657874727573696F6E207072657665EF
:100EB0006E7465640A006F70656E206661696C65AA
:100EC000642C2046696C653A200057726974696E1B
:100ED0006720746F2066696C653A20006E6F5F66EC
:100EE000696C65005344207072696E74696E672086
:100EF000627974653A004E6F7420534420707269B1
:100F00006E74696E670A004D3234004D323320250D
:100F100073004E6F7469636500526573656E643A61
:100F200020004C4E3A257320533A256C6400564EEF
:100F30003A257320483A257320463A257320413AD2
:100F40004E4F4E4520573A4E4F4E4520473A4E4F52
:100F50004E450053463A257320503A256420423AC4
:100F60002573005454303A25642054313A256420C6
:100F7000423A256420433A256400005EBCE2613FAA
:100F8000DD83C29C7E20A3FD1F419DC3217FFCA267
:100F9000401E5F01E3BD3E6082DC237D9FC1421C99
:100FA000FEA0E1BF5D0380DE3C62BEE0025CDF814B
:100FB000633D7C22C09E1D43A1FF4618FAA42779F9
:100FC0009BC584DA3866E5BB5907DB856739BAE427
:100FD00006581947A5FB7826C49A653BD987045A59
:100FE000B8E6A7F91B45C6987A24F8A6441A99C70B
:100FF000257B3A6486D85B05E7B98CD2306EEDB3B9
:10100000510F4E10F2AC2F7193CD114FADF3702EE6
:10101000CC92D38D6F31B2EC0E50AFF1134DCE9018
:10102000722C6D33D18F0C52B0EE326C8ED0530DCA
:10103000EFB1F0AE4C1291CF2D73CA947628ABF578
:1010400017490856B4EA6937D58B5709EBB53668A6
:101050008AD495CB2977F4AA4816E9B7550B88D6D8
:10106000346A2B7597C94A14F6A8742AC896154B8A
:10107000A9F7B6E80A54D7896B35656E7175657541
:1010800065696E672022004B494C4C45442E200078
:101090005072696E7465722073746F70706564202D
:1010A00064756520746F206572726F72732E2046AE
:1010B000697820746865206572726F7220616E6451
:1010C00020757365204D39393920746F207265732E
:1010D000746172742E202854656D70657261747528
:1010E00072652069732072657365742E2053657470
:1010F0002069742061667465722072657374617210
:1011000074696E67290A004E6F20436865636B73CC
:10111000756D2077697468206C696E65206E756DD9
:101120006265722C204C617374204C696E653A20A4
:10113000004E6F20436865636B73756D207769742B
:1011400068206C696E65206E756D6265722C204C2E
:10115000617374204C696E653A2000636865636B47
:1011600073756D206D69736D617463682C204C61BB
:101170007374204C696E653A20004C696E65204E90
:10118000756D626572206973206E6F74204C617397
:1011900074204C696E65204E756D6265722B312C22
:1011A000204C617374204C696E653A20004D3131DA
:1011B00030004D3331005344207265616420657204
:1011C000726F720A00446F6E65207072696E746986
:1011D0006E672066696C650A0020496E76616C69ED
:1011E00064206578747275646572200000000000E8
:1011F0000000000000000000000091430000524386
:1012000000004043486F6D696E67206661696C65D8
:10121000640043616E6E6F74206F70656E2073752D
:1012200062646972200050726F7465637465642033
:1012300050696E0A005374616E6461726420446583
:1012400076696174696F6E3A20002052616E67653D
:101250003A2000204D61783A2000204D696E3A20F6
:10126000004D65616E3A200046696E697368656479
:10127000210A002072616E67653A2000206D617856
:101280003A2000206D696E3A2000207369676D6115
:101290003A2000206D65616E3A20003A207A3A20AB
:1012A00000206F662000205A002059002058004777
:1012B0006F696E6720746F3A00436C6F636B776978
:1012C00073650A00436F756E7465722D0020446962
:1012D00072656374696F6E3A2000202020616E672A
:1012E0006C653A20005374617274696E6720726194
:1012F000646975733A2000506F736974696F6E6921
:101300006E67207468652070726F62652E2E2E0ADB
:10131000003F4E756D626572206F66206C65677365
:1013200020696E206D6F76656D656E74206E6F74CA
:1013300020706C61757369626C652028302D3135C1
:10134000292E0A003F2028582C5929206F75742017
:101350006F6620626F756E64732E0A003F53616D75
:10136000706C652073697A65206E6F7420706C6193
:10137000757369626C652028342D3530292E0A007A
:101380004D3438205A2D50726F6265205265706559
:1013900061746162696C69747920546573740A00C0
:1013A0003F2856296572626F7365206C6576656C9F
:1013B00020697320696D706C61757369626C65205A
:1013C00028302D34292E0A0024F4D43050C38E2026
:1013D000C2A24017828B7011127A910D816CD90ACA
:1013E000A861E108C7586607615143061E4B5D05B9
:1013F000C145A7041A411104093D9803713931030D
:101400004036DB0265339102D4305402802E1D0237
:10141000632CEE01752AC501B028A00110278101B7
:101420008F2564012B244B01E0223401AC211F01E4
:101430008D200D01801FFC00841EED00971DDF0034
:10144000B81CD200E61BC600201BBC00641AB20008
:10145000B219A8000A19A0006A189900D1179100C2
:1014600040178B00B516840031167E00B315790045
:101470003A157300C7146F0058146A00EE13660023
:101480008813630025135E00C7125B006C125700BF
:1014900015125400C111510070114F0021114B0061
:1014A000D61049008D10470046104400021042003B
:1014B000C00F4000800F3E00420F3C00060F3B0073
:1014C000CB0E3800930E37005C0E3500270E34002B
:1014D000F30D3200C10D3100900D3000600D2E0073
:1014E000320D2D00050D2C00D90C2B00AE0C29005F
:1014F000850C29005C0C2700350C27000E0C2600FB
:10150000E80B2400C40B2400A00B23007D0B230058
:101510005A0B2100390B2100180B2000F80A1F007C
:10152000D90A1E00BB0A1E009D0A1D00800A1D006C
:10153000630A1C00470A1B002C0A1B00110A1A0030
:10154000F7091A00DD091900C4091900AB091900CF
:10155000920917007B091800630917004C0916004F
:1015600036091600200916000A091500F5081500AD
:10157000E0081400CC081400B8081400A4081400F3
:10158000900813007D0812006B0813005808120021
:101590004608120034081100230811001208110037
:1015A00001081100F0071000E0071000D00710003C
:1015B000C0071000B0070F00A107100091070E0030
:1015C00083070F0074070F0065070E0057070E0012
:1015D00049070E003B070D002E070E0020070D00E7
:1015E00013070D0006070D00F9060C00ED060D00AF
:1015F000E0060C00D4060C00C8060C00BC060C006B
:10160000B0060C00A4060B0099060C008D060B001A
:1016100082060B0077060B006C060B0061060A00C1
:1016200057060B004C060A0042060A0038060A005C
:101630002E060A0024060A001A060A0010060900EF
:1016400007060A00FD050900F4050900EB0509007D
:10165000E2050900D9050900D0050900C705090000
:10166000BE050900B5050800AD050800A50509007F
:101670009C050800940508008C05080084050800F6
:101680007C050800740508006C0507006505080066
:101690005D050700560508004E05070047050700D1
:1016A0004005080038050700310507002A05070036
:1016B000230507001C050600160507000F05070097
:1016C0000805060002050700FB040600F5040700F4
:1016D000EE040600E8040600E2040700DB0406004E
:1016E000D5040600CF040600C9040600C3040600A2
:1016F000BD040600B7040600B1040500AC040600F2
:10170000A6040600A00405009B040600950405003D
:10171000900406008A040500850405008004060084
:101720007A04050075040500700405006B040500CB
:1017300066040500610405005C040500570405000B
:10174000520405004D04050048040500430405004B
:101750003E0404003A04050035040500300404008A
:101760002C04050027040400230405001E040400C3
:101770001A04040016040500110404000D040400FA
:10178000090405000404040000040400FC03040030
:10179000F8030400F4030400F0030400EC03040065
:1017A000E8030400E4030400E0030400DC03040095
:1017B000D8030400D4030400D0030400CC030400C5
:1017C000C8030300C503030024F404D9201BC40C80
:1017D0005C0E9804C4095F0265077101F405F90005
:1017E000FB04B30048048700C10369005803550097
:1017F00003034500BE023A008402310053022A006E
:101800002902250004022000E4011C00C80119007F
:10181000AF0117009801140084011300710110003A
:101820006101100051010E0043010D0036010B0053
:101830002B010B0020010B00150109000C01090010
:1018400003010800FB000800F3000800EB0007009C
:10185000E4000600DE000600D8000600D200060004
:10186000CC000500C7000500C2000500BD00040053
:10187000B9000400B5000400B1000400AD0004008C
:10188000A9000400A5000300A20003009F000400BB
:101890009B000300980003009500020093000300E2
:1018A000900003008D0002008B00030088000200FE
:1018B0008600020084000300810002007F00020015
:1018C0007D0002007B000200790002007700010029
:1018D0007600020074000200720001007100020034
:1018E0006F0002006D0001006C0002006A00010040
:1018F0006900020067000100660001006500010048
:10190000640002006200010061000100600001004B
:101910005F0002005D0001005C0001005B0001004F
:101920005A00010059000100580001005700010051
:101930005600010055000100540001005300000052
:10194000530001005200010051000100500001004D
:101950004F0001004E0000004E0001004D0001004C
:101960004C0001004B0000004B0001004A00010048
:101970004900010048000000480001004700010044
:10198000460000004600010045000000450001003F
:101990004400010043000000430001004200000039
:1019A0004200010041000000410001004000010030
:1019B0003F0000003F0001003E0000003E0001002B
:1019C0003D0000003D0001003C0000003C00000024
:1019D0003C0001003B0000003B0001003A00000019
:1019E0003A00010039000000390001003800000011
:1019F0003800000038000100370000003700010007
:101A000036000000360000003600010035000000FE
:101A100035000000350001003400000034000000F3
:101A200034000100330000003300000033000100E7
:101A300032000000320000003200010031000000DE
:101A400031000000310001003000000030000000D3
:101A5000300001002F0000002F0000002F000000C8
:101A60002F0001002E0000002E0000002E000100BB
:101A70002D0000002D0000002D0000002D000100B1
:101A80002C0000002C0000002C0000002C000100A5
:101A90002B0000002B0000002B0000002B00010099
:101AA0002A0000002A0000002A0000002A0001008D
:101AB0002900000029000000290000002900000082
:101AC0002900010028000000280000002800000074
:101AD0002800000028000100270000002700000067
:101AE000270000002700000027000100260000005A
:101AF000260000002600000026000000260001004D
:101B00002500000025000000250000002500000041
:101B10002500000025000100240000002400000032
:101B20002400000024000000240001002300000025
:101B30002300000023000000230000002300000019
:101B4000230000002300010022000000220000000A
:101B500022000000220000002200000022000100FC
:101B600021000000210000002100000021000000F1
:101B700021000000210000002100010020000000E1
:101B800020000000200000002000000020000000D5
:101B90002000000020000000200001001F000000C5
:101BA0001F0000001F0000001F0000001F000000B9
:101BB0001F0000001F0001001E0000001E000000AA
:101BC0001E0000001E000000043700001E29000057
:101BD000511B00005810000010090000CC04000048
:101BE000780200004101000020204261636B200068
:101BF0002052657475726E20486F6D65004A6F677C
:101C0000204D6F6465004732380047393000473156
:101C1000205A313000473931004731205A310047CE
:101C20003931004731205A302E31004739310047D1
:101C300031205A2D313000473931004731205A2D9B
:101C40003100473931004731205A2D302E310047BD
:101C5000393100473120593530004739310047319B
:101C60002059313000473931004731205931004780
:101C7000393100473120592D35300047393100477F
:101C80003120592D31300047393100473120592D4D
:101C9000310047393100473120583530004739315C
:101CA0000047312058313000473931004731205842
:101CB000310047393100473120582D353000473940
:101CC0003100473120582D3130004739310047313C
:101CD00020582D31004739310020204261636B20AC
:101CE000004C454420436F6C6F72205365747469D7
:101CF0006E6700507265706172652061207061705E
:101D0000657220616E6420626567696E2E0074687A
:101D10006520706C6174666F726D20616E642074F2
:101D20006865206E6F7A7A6C652E0074686520672E
:101D30006170206265747765656E20746865203413
:101D400020706F696E7473206F66004C6576656CE9
:101D50002042656420697320746F206D656173751E
:101D6000726520616E642061646A7573740020205E
:101D7000426567696E002043616E63656C004C6567
:101D800076656C2042656400436C69636B20456E28
:101D90006420746F2066696E697368204C6576658F
:101DA0006C204265642E0041646A75737420746807
:101DB00065206E7574206F6E20746865206C656692
:101DC000742066726F6E74206F66002020456E640A
:101DD0000041646A75737420746865206E757420A0
:101DE0006F6E20746865206C656674207265617220
:101DF000206F6600436C69636B204E6578742074B5
:101E00006F20636F6E74696E75652E007468696308
:101E10006B6E657373206F66206120706965636502
:101E2000206F662070617065722E00746865206294
:101E300065642C20756E74696C2074686520676118
:101E400070206973207468650041646A757374203A
:101E5000746865206E7574206F6E207468652072DA
:101E6000696768742072656172206F660020204E79
:101E7000657874004731205A313030204635303093
:101E8000004731205A302046353030004731205845
:101E9000313431205935204633303030004731203D
:101EA0005A31302046353030004731205A302046F4
:101EB0003530300047312058353120593230352007
:101EC0004633303030004731205A313020463530EB
:101ED00030004731205A302046353030004731201D
:101EE00058323331205932303520463330303000CB
:101EF00047323900473238004732380025696D00D3
:101F000025696D002569682025696D0025696420B3
:101F10002569682025696D00256979202569642077
:101F20002569682025696D00200045564F20322E16
:101F3000310055492056657273696F6E3A00322E32
:101F4000312E30004669726D776172652056657278
:101F500073696F6E3A005072696E746564205469DB
:101F60006D653A00463139324300446576696365F0
:101F7000204E616D653A0020204261636B20004D68
:101F8000616368696E6520496E666F726D61746920
:101F90006F6E0020204261636B2000202020486586
:101FA0006C70202000202053657474696E67004DAA
:101FB00061696E74656E616E6365002020205072E9
:101FC000696E7400687474703A2F2F7777772E7764
:101FD0006565646F2E6C746400576562736974651F
:101FE000002000253164002532640025336400257B
:101FF000346400253564002020526573746F726567
:102000002044656661756C74002020204C45442096
:10201000436F6C6F72002020204D616368696E65AC
:1020200020496E666F002050726576696F75732067
:1020300020002020202020506F7374002020527533
:102040006E6F75742053656E736F720020417574E6
:102050006F20506F776572204F66660020204E65B6
:10206000787420202020200020004D6F76696E6754
:102070002C20706C6561736520776169742E2E2E3B
:1020800000556E6B6E6F776E20636F6D6D616E6461
:102090003A20220050726F62696E67206661696C37
:1020A000656400205A3A200020593A2000426564B5
:1020B00020583A200020204261636B20002066698E
:1020C0007273740A005A0059005800486F6D6520F9
:1020D000006F6B0020636F6C642065787472757399
:1020E000696F6E2070726576656E7465640A002093
:1020F00046696C616D656E742072756E6F75742CB7
:10210000207072696E742070617573656400436F2E
:102110006E74696E7565004B494C4C45442E200029
:102120004B494C4C2063617573656420627920745F
:102130006F6F206D75636820696E61637469766581
:102140002074696D65202D2063757272656E742030
:10215000636F6D6D616E643A200076616C3A2000A9
:10216000616464723A200044475553206B657920BE
:10217000707265737365640A004447555320536356
:102180007265656E2049443A00534420696E697453
:10219000206661696C0A0053442063617264206F99
:1021A0006B0A005072696E7465722068616C7465A8
:1021B000642E206B696C6C28292063616C6C6564EB
:1021C000210A00000091430000524300000000007B
:1021D00000484200004842555505410000000057A4
:1021E00061726E696E673A20486F6D696E67204252
:1021F000756D702044697669736F72203C20310AD6
:10220000000202040000A0400000A0400000A04026
:102210000000914300005243000040430101FF4889
:102220006F74656E6420746F6F20636F6C640A0056
:102230004D31380020203630302500002020343049
:1022400030250000202032303025000020203130A1
:1022500030250000202035302500000020203235B8
:102260002500000020204F4B002043616E63656C09
:10227000005072696E7420537065656420536574F4
:1022800074696E670050657263656E740052656DA7
:1022900061696E00456C617073656400426564003D
:1022A0004E6F7A7A6C650053706565640046696CA0
:1022B00065002053657474696E670020205175694C
:1022C00074002020526573756D65005072696E74DC
:1022D0002050617573650020205061757365005052
:1022E00072696E74696E67003F3F683F3F6D0025FD
:1022F0003364252500253364252500616E64206341
:10230000616E6E6F74206265207265636F766572B0
:1023100065642E005468652063757272656E742062
:102320007072696E74206A6F622077696C6C2062CB
:10233000652061626F727465640020002020594539
:10234000530020204E4F00436F6E6669726D002F60
:102350002F616374696F6E3A726573756D650A00FB
:102360004D32340020526573756D65207072696E50
:1023700074696E672E2E2E002053746F7020707259
:10238000696E74696E672E2E2E002F2F616374693B
:102390006F6E3A63616E63656C0A004D31303700D1
:1023A0004D31303600473120452D3100473931005D
:1023B0004D3330322050310047312045310047390C
:1023C00031004D333032205031004731205A2D3109
:1023D000004731205A310047393100473120592D0B
:1023E0003100473931004731205931004739310038
:1023F000473120582D3100473931004731205831BD
:102400000047393100746865206761702069732066
:1024100074686520746869636B6E657373206F669A
:102420002061207069656365206F6620706170654A
:10243000722E00616E64206265642E20436C6963B5
:102440006B20627574746F6E20746F206D6F76658B
:1024500020626564207570206F7220646F776E2033
:10246000756E74696C005A204F66667365742069D6
:1024700073207573656420746F2066696E652D74B2
:10248000756E652074686520676170206265747779
:1024900065656E206E6F7A7A6C65002020536176D8
:1024A00065002043616E63656C005A204F66667359
:1024B00065742053657474696E67004731205A3023
:1024C00020463230300047312058313430205931E5
:1024D0003030204632303030004732390047323811
:1024E00000453120544845524D414C2052554E41F3
:1024F0005741590042454420544845524D414C20D3
:1025000052554E4157415900546865726D616C20B7
:1025100052756E617761790020004572726F7200AA
:1025200053442063617264206F6B0A006F70656EA4
:10253000526F6F74206661696C65640A00766F6C17
:10254000756D652E696E6974206661696C65640AD3
:10255000004572726F723A00534420696E697420AC
:102560006661696C0A006563686F3A0046696C6170
:102570006D656E7420757365643A200053746174E0
:10258000733A20002C204C6F6E67657374206A6F5D
:10259000623A2000546F74616C2074696D653A2052
:1025A0000053746174733A20002C204661696C6595
:1025B000643A20002C2046696E69736865643A208D
:1025C000005072696E74733A200053746174733AE8
:1025D000200020573A0020573A0042656420636F7C
:1025E0006F6C696E672E2E2E0042656420686561EF
:1025F00074696E672E2E2E00205A3A0020593A0038
:1026000020436F756E7420583A0020453A00205AD6
:102610003A0020593A00583A00205A0020590058F0
:102620000020204D61783A2000205A00205900589F
:102630000020204D696E3A20004F6E20004F6666E4
:1026400000536F667420656E6473746F70733A2004
:1026500000026F6E20006F6666006F6E20006F666E
:1026600066006F6666006F6E20006F6666006F6EB4
:1026700020002564A1E60047323820592046323038
:102680003030005041535300473238205A204635ED
:102690003030004732382058205920463230300040
:1026A0004D6F76696E672E2E2E002050726576690A
:1026B0006F757320200020204E6578742020202024
:1026C000200020002564EFBFBDEFBFBD002564EFF3
:1026D000BFBDEFBFBD002020202053617665264F8F
:1026E000666600202052756E6F75742053656E7398
:1026F0006F7200204175746F20506F776572204FA4
:102700006666002050726576696F75732020002020
:102710002020202053706565640020202054656DC2
:1027200070657261747572650046696C616D656E85
:1027300074204F7065726174696F6E0020204E6561
:10274000787420202020200020002020204D6F744D
:102750006F72204F6666002020205A204F666673F5
:102760006574002020204C6576656C20426564000D
:102770002020204A6F67204D6F64650020507265ED
:1027800076696F75732020002020202050726568C4
:10279000656174002046696C616D656E74205265D8
:1027A000747261637400202046696C616D656E749B
:1027B00020466565640020204E6578742020202026
:1027C000200020002564EFBFBDEFBFBD002564EFF2
:1027D000BFBDEFBFBD002564EFBFBDEFBFBD00258E
:1027E00064EFBFBDEFBFBD0070012C019001270158
:1027F000B0012201C0011D01F001180110021301F6
:1028000030020E016002090190020401C002FF00C3
:102810000003FA004003F5008003F000D003EB0052
:102820002004E6007004E100E004DC004005D7006D
:10283000C005D2004006CD00D006C8008007C30006
:102840003008BE00F008B900C009B400B00AAF00FB
:10285000B00BAA00D00CA500000EA000500F9B00EA
:10286000C01096005012910000148C00C015870013
:10287000B0178200B0197D00D01B7800001E7300D5
:1028800040206E0090226900F024640040275F0021
:1028900090295A00E02B5500102E500020304B009C
:1028A00010324600E033410090353C0010373700CD
:1028B00070383200A0392D00B03A2800A03B230028
:1028C000603C1E00103D1900903D1400103E0F00AA
:1028D000703E0A00C03E0500003F0000403FFBFF85
:1028E000803FF6FFC03FF1FF4E6F7A7A6C6520663D
:1028F00061696C7572653A2074656D70657261749A
:102900007572652065786365656473206D617869AB
:102910006D756D004D415854454D50207472696776
:10292000676572656400426564206661696C7572F2
:10293000653A2074656D70657261747572652063A7
:10294000616E27742062652072656164004D494E96
:1029500054454D5020747269676765726564004E16
:102960006F7A7A6C65206661696C7572653A20745D
:10297000656D70657261747572652063616E277430
:102980002062652072656164004D494E54454D508A
:1029900020747269676765726564004D3834205829
:1029A0002059205A204500202F002042403A002084
:1029B000403A0020526573756D65207072696E74BF
:1029C000696E672E2E2E00486F74656E6420746FDA
:1029D0006F20636F6C640A002569730025696D20A0
:1029E000256973002569682025696D2025697300B4
:1029F000256964202569682025696D202569730093
:102A000025697920256964202569682025696D205C
:102A1000256973006265640A002C207379737465FC
:102A20006D2073746F7070656421204865617465F2
:102A3000725F49443A200007FFFFFFFFFF000101DA
:102A40000101014D4158363637350A0054656D7025
:102A5000206D6561737572656D656E742065727247
:102A60006F722120004265642068656174696E6739
:102A7000206661696C65640048656174696E6720F1
:102A80006661696C65640045312048656174696EF2
:102A900067206661696C65640048656174696E678A
:102AA000206661696C65640057726974696E67209D
:102AB000746F2066696C653A20006F70656E2066E1
:102AC00061696C65642C2046696C653A20006F7002
:102AD000656E206661696C65642C2046696C653A98
:102AE000200046696C652073656C65637465640AD3
:102AF000002053697A653A200046696C65206F7042
:102B0000656E65643A20002066696C653A20006451
:102B10006F696E67006672657368004E6F7720009C
:102B2000454E4420535542524F5554494E450A0094
:102B30002220706F73002220706172656E743A22D9
:102B400000535542524F5554494E452043414C4C39
:102B5000207461726765743A22004B494C4C4544BD
:102B60002E20006F70656E206661696C65642C2094
:102B700046696C653A200043616E6E6F74206F7019
:102B8000656E207375626469722000000021002464
:102B90000027002A002D003000330001010000044E
:102BA0000107010A0100002200250028002B002E49
:102BB000003100340002010000050108010B010092
:102BC0000020002300260029002C002F00320000E6
:102BD00001000003010601090105050505070508B7
:102BE000080808020202020A0A0808040404040190
:102BF00001010101010101030303030303030304B2
:102C00000707070C0C0C0C0C0C0C0C020202020641
:102C1000060606060606060B0B0B0B0B0B0B0B072B
:102C2000070A0A0A0A0A0A050501021020200808F4
:102C3000102040102040800201020108040201011E
:102C40000204081020408080402010080402018007
:102C5000040201804020100804020108040201015E
:102C60000204081020408001020408102040801057
:102C70000804088010204004400042E32CE31124A3
:102C80001FBECFEFD1E2DEBFCDBF14E0A0E0B2E0C7
:102C9000ECE6F9EE01E00BBF02C007900D92A43BF9
:102CA000B107D9F72CE1A4EBB4E001C01D92A53A1D
:102CB000B207E1F716E1CEE3D6E104C02197FE01A9
:102CC0000E94FBF3CD33D107C9F70E94FCD80C94C6
:102CD000A9F40C9400002F923F924F925F926F9252
:102CE0007F928F929F92AF92BF92CF92DF92EF929C
:102CF000FF920F931F93CF93DF93CDB7DEB7CD57DE
:102D0000D1090FB6F894DEBF0FBECDBF80919D1CD8
:102D10008D3409F4EFC224F4873471F00C945B26EF
:102D2000843511F40C940F26873511F00C945B2632
:102D30000E945B3D0C945D268091DA079091DB0741
:102D40008C31910509F44DC164F48430910509F486
:102D5000DCC01CF4029778F1C9C24B9709F415C185
:102D6000C5C28A35910509F446C244F48D319105F6
:102D700009F44EC14E9709F46BC1B8C28B35910569
:102D800009F43DC28C35910509F0B0C245E4242E0A
:102D900042E0342E54ECE52E51E1F52E2AE731E1E4
:102DA000AB963FAF2EAFAB976AE6C62E61E1D62E4B
:102DB00000E010E06AC280913802882311F40C947C
:102DC0005D26F5E48F2EF2E09F2EACEDEA2EA7E013
:102DD000FA2E0AE711E1BAE6AB2EB1E1BB2E8DED7A
:102DE000C82E84E0D82E712CD4018D914D010E9403
:102DF000CF2C882319F10E94982CF60120812111F3
:102E000004C02091E104222341F0D8012D913D918D
:102E10004D915C910E9433F10AC0B3E07B1639F00A
:102E2000F50120813181428153810E9432F1D70125
:102E30006D937D938D939C9313970AC0F8018081C5
:102E40009181A281B381F70180839183A283B383AF
:102E50007394F4E0EF0EF11C0C5F1F4F24E0A20E00
:102E6000B11C3FEFC31AD30A84E07812BDCF86E4C9
:102E70000E94182D8823C9F00E94982C20E030E091
:102E8000A9010E94FAF2181684F40E94982C20E0FE
:102E900030E040E752E40E94BBF160931B02709364
:102EA0001C0280931D0290931E028091280883FDCE
:102EB00028C080912B05882321F120918611309123
:102EC000871140918811509189116091E8077091A4
:102ED000E9078091EA079091EB070E9432F1209177
:102EE00038053091390540913A0550913B050E94D3
:102EF00033F1609338057093390580933A059093C8
:102F00003B050E94C19A0C945D2680E50E94182D15
:102F1000882379F08091B4049091B504009749F02A
:102F20004AE050E060E070E00E949BE86B017C01A9
:102F300003C0C12CD12C760183E50E94182D882373
:102F400061F00E94982C20E030E04AE754E40E94AF
:102F5000ADEA0E9434F26B017C010E9414640E946D
:102F60000FD5C60ED71EE81EF91E0E940FD5DC0134
:102F7000CB018C199D09AE09BF09B7FD02C00C94A5
:102F80005D2680E00E94F096F0CF0E94358F81117F
:102F90000C945D2680E090E0A0EAB0E489839A83F7
:102FA000AB83BC838D839E83AF83B88780E090E042
:102FB000A0EAB1E489879A87AB87BC8780E50E9445
:102FC000182D882319F00E94882C01C060E06DA3A1
:102FD000BE016F5F7F4FCE0185960E945DBF0C944E
:102FE0005D26809169118770873011F00C946026FE
:102FF0008FE40E94182D882319F00E94F67503C0F3
:103000008FE40E94CF2C81110C945D260C946026D5
:103010000E94358F81110C945D268091FC078823D6
:1030200011F40C9434278FE40E94182D882341F06A
:103030000E94F675882311F40C9434270C945D26B5
:103040008FE40E94CF2C81110C945D260C943427C0
:10305000C0907A11D0907B11E0907C11F0907D119E
:1030600088E50E94182D811108C020E030E0A901F8
:10307000C701B6010E9433F102C00E94982C6DA3D3
:103080007EA38FA398A7C0907E11D0907F11E0906F
:103090008011F090811189E50E94182D811108C0DE
:1030A00020E030E0A901C701B6010E9433F102C05F
:1030B0000E94982C9B01AC0169837A838B839C834B
:1030C0006DA17EA18FA198A50E942796882311F457
:1030D0000C945D2680E00E943D780E94C26F85E4DA
:1030E0000E94182D882321F00E94F675182F04C025
:1030F00085E40E94CF2C11E086E50E94182D8823DC
:1031000021F00E94882C262F01C021E0412FBE0112
:103110006F5F7F4FCE0185960E94DC8F6B017C0133
:103120009B01AC010E9480F381115FC08DA09EA025
:10313000AFA0B8A420E030E0A901C501B4010E940D
:1031400047EA87FF05C027E137EB41E558EB04C0AC
:1031500027E137EB41E558E3C501B4010E9433F1A3
:10316000AB01BC018FE693E00E94938689809A8030
:10317000AB80BC8020E030E0A901C501B4010E9411
:1031800047EA87FF05C027E137EB41E558EB04C06C
:1031900027E137EB41E558E3C501B4010E9433F163
:1031A000AB01BC018AE693E00E94938620E030E008
:1031B000A901C701B6010E9447EA87FF05C027E1C0
:1031C00037EB41E558EB04C027E137EB41E558E325
:1031D000C701B6010E9433F1AB01BC0185E693E063
:1031E0000E9493868AE00E94F3BF0E94A96F0E940A
:1031F000F0A90C945D261092E1040C945D2681E008
:103200008093E1040C945D260E94982C2B013C01D4
:10321000133049F0F60120813181428153810E94AF
:1032200032F12B013C01AB96AEADBFADAB972D910A
:103230003D914D915C91C301B2010E9432F14B016D
:103240005C012DEB37E346E855EB0E94FAF287FD6F
:1032500024C02DEB37E346E855E3C501B4010E94D5
:1032600047EA1816D4F01F5FB4E0EB0EF11CAB96E2
:10327000EEADFFADAB973496AB96FFAFEEAFAB972D
:10328000F4E0CF0ED11C143039F1D1018D911D0124
:103290000E94182D882339F3B7CF133051F4409290
:1032A000861150928711609288117092891101E005
:1032B000DACFA5019401F701608171818281938148
:1032C0000E9433F1D7016D937D938D939C93139757
:1032D000812F0E94B571C7CF002321F086E891E1CC
:1032E0000E94EB8E0E94F0A90C945D260E94FA9237
:1032F0000C945D268091DA079091DB078037910569
:1033000009F4D4C30CF0C1C08B34910509F409C38E
:103310000CF05FC08A31910509F448C294F58531FB
:10332000910509F4C2C1D4F48231910509F436C57E
:103330008431910509F486C1419711F00C940C2653
:1033400084E194E00E949D8F8A988E988091080174
:1033500084708093060114980C945D268731910542
:1033600009F4ADC10CF4A5C18831910509F4BFC1C0
:10337000499711F00C940C2681E00E94093D0C94B1
:103380005D268F31910511F40C945D2684F48C3107
:10339000910509F432C20CF417C28D31910511F474
:1033A0000C945D264E9709F432C20C940C2681329F
:1033B000910509F47EC20CF43AC28A32910509F4EF
:1033C0007CC2C09711F00C940C260E945B780C9480
:1033D0005D268535910509F414C524F580359105E0
:1033E00009F481C47CF48D34910509F4A2C20CF473
:1033F0009CC28E34910511F00C940C260E9411AEE3
:103400000C945D268235910509F4C1C40CF492C474
:103410008335910509F4BEC48435910509F4BEC411
:103420000C940C268B36910509F4C9C3F4F4883644
:10343000910509F482C27CF48C35910511F00C944D
:103440000C2685E4C82E82E0D82E9BE9E92E91E176
:10345000F92E10E0EFC48936910509F42BC38A36A2
:10346000910509F48EC30C940C268D36910509F450
:1034700062C30CF417C38E36910509F48DC28F36E2
:10348000910509F49CC20C940C268C3D910511F415
:103490000C94FE220CF05CC08C38910509F44FC3EB
:1034A00024F58637910509F4E3C57CF4833791054B
:1034B00011F40C945D268537910509F477C58237A0
:1034C000910511F00C940C2634C58837910509F448
:1034D0001FC60CF41AC68937910509F41FC68D372B
:1034E000910509F47EC30C940C268B3C910509F4DC
:1034F00084C6DCF48E3B910509F43FC334F48B3968
:10350000910509F4F1C20C940C26883C910509F44C
:103510000AC6893C910511F00C940C2605E4E02EB6
:1035200002E0F02E08E71BE14EC68D3C910509F440
:10353000F5C60CF47EC68E3C910509F468C7833D40
:10354000910511F00C940C260E9412A90C945D2692
:10355000803921E0920711F40C9409258CF58C3206
:10356000A1E09A0711F40C94AE2394F4823E9105E5
:1035700011F40C947A238232E1E09E0711F40C944A
:10358000A3238D3D910511F00C940C260C940B2374
:103590008E32F1E09F0711F40C94772414F40C940C
:1035A000D7238F3231E0930711F40C94CB24833668
:1035B000914011F00C940C26E1E5F5E20C94F62410
:1035C000853FB1E09B0711F40C949625F4F4843AFE
:1035D000F1E09F0711F40C940C254CF48A399140CA
:1035E00011F00C940C260E94E0A80C945D268C3AF5
:1035F000A1E09A0709F42EC7843F914011F00C9482
:103600000C260E941D340C945D26883FE1E09E0745
:1036100011F40C9499254CF4863F914011F00C94D0
:103620000C260E94DB2D0C945D26883532E0930732
:1036300011F40C94BD258B35924011F40C94C025E7
:103640000C940C26E6E8F3E084918F010F5F1F4F86
:10365000882321F00E94F3BFF801F6CF10922516BF
:103660008CE495E10E94603868E475E1CE01019632
:103670000E94ACA740E050E0BE016F5F7F4F80E04A
:1036800090E00E946ECECE0101960E946B38E7E773
:10369000F3E084918F010F5F1F4F882311F40C9486
:1036A0005D260E94F3BFF801F4CF0E9455A40C944C
:1036B0005D2610921615109217150C945D260E9427
:1036C0008D67E091D807F091D9078081882329F090
:1036D000803209F410823196F8CF40E061E08091A9
:1036E000D8079091D9070E9409D10C945D2680E0FB
:1036F00090E0A8E4B2E489839A83AB83BC831DA2E3
:103700001EA21FA218A619AA1AAA1BAA1CAA809157
:10371000EF1B882359F020E0AE014F5F5F4FBE01E1
:103720006B5D7F4FCE01C1960E9463C283E50E940C
:10373000182D882381F00E94882CAB01BC01409396
:1037400021165093221660932316709324168DEC45
:1037500095E10E94AE4080911715882319F081E011
:10376000809316150E94B46784E50E94182D882363
:10377000B1F00E94882C6B017C010E9493CDC09215
:10378000AC1BD092AD1BE092AE1BF092AF1BCD28CC
:10379000CE28CF2831F081E08093B81B02C00E9470
:1037A00076C581E08093770B0C945D268091171588
:1037B000882311F40C945D2683E50E94182D811155
:1037C0000C94EA290C945D2683E40E94CF2C882374
:1037D00081F0E7E9F3E084918F010F5F1F4F8823A9
:1037E00021F00E94F3BFF801F6CF0E94F6660C9418
:1037F0005D260E94B3660C945D2640E060E08091F7
:10380000D8079091D9070E9409D10C945D26809128
:103810001715882311F40C945D260E9450CE8091D8
:10382000D8079091D9070E94A0D20C945D26809170
:10383000161581110E94146480911715882311F4C4
:103840000C945D2680E50E94182D882319F00E94B3
:10385000F67503C080E50E94CF2C182F482F61E039
:103860008091D8079091D9070E9409D183E50E94E1
:10387000182D882381F00E94882CAB01BC01409355
:1038800021165093221660932316709324168DEC04
:1038900095E10E94AE4080911715882319F081E0D0
:1038A0008093161511110C945D260E9476C50C9418
:1038B0005D260E94D97D0C945D2683E50E94182D1B
:1038C000882311F40C945D260E94A075E82E80E5F3
:1038D0000E94182D882339F00E94A075182F87FFA9
:1038E00003C00C945D261DE089E40E94182D8823F6
:1038F00041F00E94F67581110C94DD2AE6E2F4E0B5
:103900000BC089E40E94CF2CF6CF3196B4E0E335AA
:10391000FB0711F40C94DD2A84911813F6CF0C9454
:10392000602A0E9476C50C945D260E94AECD0C9450
:103930005D260E94BDC50C945D2688E690E00E943D
:10394000B47581110C945D268091280883FF02C014
:103950000C945D2683E50E94182D882311F40C94A5
:103960005D260E94982C0E942DF27093640560934E
:10397000630580E00E9420BA0E94982C20E030E08D
:103980004AEA52E40E9447EA181614F40C945D26A1
:103990000E94BDC50C945D268EE40E94182D8823DC
:1039A00011F40C945D260E94882C60936A0B70932E
:1039B0006B0B80936C0B90936D0B0C945D2683E5E1
:1039C0000E94CF2C882359F083E50E94182D88236C
:1039D00019F00E94A07501C080E080932808E6E6F7
:1039E000F5E284918F010F5F1F4F811103C0E4EB5B
:1039F000F3E004C00E94F3BFF801F3CF84918F017C
:103A00000F5F1F4F882321F00E94F3BFF801F6CF0C
:103A100080912808811103C0E0EBF3E034C036EA5E
:103A2000C32E33E0D32EE12CF12C20E08091280826
:103A300090E00E2C02C0959587950A94E2F780FFDE
:103A400017C0BB24B394B20E222319F08CE20E945B
:103A5000F3BFF60185919491FC0184918F010F5F72
:103A60001F4F882321F00E94F3BFF801F6CF2B2DC2
:103A7000EFEFEE1AFE0AF2E0CF0ED11C35E0E316AE
:103A8000F104A1F60AC084918F010F5F1F4F8823B4
:103A900021F00E94F3BFF801F6CF8AE00E94F3BF45
:103AA0000C945D26109207020C945D268BEB93E03C
:103AB0000E94A99689E690E00E94B47581110C9449
:103AC000F22AE4ECF3E084918F010F5F1F4F88230B
:103AD00021F00E94F3BFF801F6CF0E9417B98AE0E7
:103AE0000E94F3BF0C94F22A83E50E94182D8823CC
:103AF00011F40C945D260E94A075182F8D3308F0E8
:103B00001CE31093C3110E940FD56B017C01212F80
:103B100030E0A8EEB3E00E9423F1C60ED71EE81EE7
:103B2000F91EC092BF11D092C011E092C111F09263
:103B3000C2110C945D260E9472AC0C945D2680919B
:103B4000280883FF02C00C945D2683E50E94182D8F
:103B5000882311F40C945D260E94982C0E942DF26B
:103B60006639710514F066E970E070936205609340
:103B700061050E94D4B90C945D260E94BAAA0C94E7
:103B80005D2680E50E94182D811106C083E50E9404
:103B9000182D882361F006C00E94A07581110C9435
:103BA0005D26F4CF0E94882C6F3F710510F06FEFF7
:103BB00070E070932608609325080C945D2680E5DC
:103BC0000E94182D811106C0109226081092250817
:103BD0000C945D260E94882C672B11F00C945D26B6
:103BE000F3CF8CE40E94CF2C882381F00E94982C84
:103BF0006B017C0120E030E0A9010E94FAF287FF0E
:103C00000AC0F7FAF094F7F8F09405C0C12CD12C53
:103C1000E12C20E4F22EF7FAF094F7F8F094C9AA18
:103C2000DAAAEBAAFCAA80E090E0A0EAB0E48983DB
:103C30009A83AB83BC838D839E83AF83B88780E0F8
:103C400090E0A0EAB1E489879A87AB87BC8788E5D2
:103C50000E94182D882379F088E50E94182D88236A
:103C600019F00E94982C03C060E070E0CB016983DA
:103C70007A838B839C8389E50E94182D882379F0B1
:103C800089E50E94182D882319F00E94982C03C002
:103C900060E070E0CB016D837E838F8398878AE537
:103CA0000E94182D882379F08AE50E94182D882318
:103CB00019F00E94982C03C060E070E0CB01698786
:103CC0007A878B879C871DA21EA21FA218A6AE0111
:103CD0004B5D5F4FBE016F5F7F4FCE01C1960E946B
:103CE00034C10C945D2683E50E94CF2C8823A9F073
:103CF00080910002882319F0E7ECF3E002C0EDECBC
:103D0000F3E084918F010F5F1F4F882311F40C940F
:103D10005D260E94F3BFF801F4CF0E9A169881E059
:103D20008093000264E670E080E090E00E94D5D4C9
:103D30000C945D260E946CBA0E9452641092260870
:103D40001092250868EE73E080E090E00E94F3B8DE
:103D5000E3EDF3E084918F010F5F1F4F882321F083
:103D60000E94F3BFF801F6CF0E9A169A64EF71E045
:103D700080E090E00E94D5D40E9A169864EF71E02E
:103D800080E090E00E94D5D41092000296C7109275
:103D9000E00493C781E08093E0048FC783E50E942D
:103DA000182D882399F00E94982C20E030E04AE7F3
:103DB00054E40E94ADEA0E9434F260932C027093A6
:103DC0002D0280932E0290932F0277C788E50E94E0
:103DD000CF2C81110C94FB2989E50E94CF2C8111F5
:103DE0000C94FB298AE50E94CF2C81110C94FB29AD
:103DF00085E40E94CF2C81110C94FB290E9452640F
:103E00005CC783E50E94CF2C882309F456C70E9423
:103E1000982C20E030E04AE754E40E94ADEA0E948A
:103E200034F26093BB117093BC118093BD119093D9
:103E3000BE1143C7D6018D916D010E94CF2C8823FE
:103E400009F46DC0133009F063C00E94982C4B0137
:103E50005C0120E030E040EA51E40E9447EA87FF3D
:103E60004EC0A50194016091A7117091A811809195
:103E7000A9119091AA110E94BBF12B013C019B0159
:103E8000AC016091090870910A0880910B0890912B
:103E90000C080E94ADEA6093090870930A088093A9
:103EA0000B0890930C08A30192016091F611709198
:103EB000F7118091F8119091F9110E94ADEA609389
:103EC000F6117093F7118093F8119093F9116091A6
:103ED000741B7091751B8091761B9091771B0E94CB
:103EE0004CEAA30192010E94ADEA0E9434F2609371
:103EF000741B7093751B8093761B9093771B809235
:103F0000A7119092A811A092A911B092AA1107C06E
:103F10000E94982CF70160837183828393831F5FD3
:103F2000F4E0EF0EF11C143009F084CF0E9450C869
:103F3000C4C60E94146483E50E94182D882309F4E6
:103F4000D1C90E94882C6230710509F0CBC90E944A
:103F50004D9C8BE50E94F3BF60915C1170915D11E7
:103F600080915E1190915F1142E00E9483C0409168
:103F7000601150916111609162117091631183EE33
:103F800093E00E9493864091641150916511609175
:103F900066117091671180EE93E00E9493868DE523
:103FA0000E94F3BF8AE00E94F3BF87C60091D80742
:103FB0001091D907D8018C91882309F47EC6F801A5
:103FC00001900020E9F731977F01E01AF10AB9E08A
:103FD000EB16F1040CF448C05801AE0CBF1C68018C
:103FE0006DE174E0C6010E948FF4801B910BEFEF2E
:103FF000CE1ADE0A18161906ACF58E159F05A4F523
:10400000CA14DB0439F0F801E80FF91F3197208159
:10401000203231F7AC01475F5F4FB801640F751F65
:10402000FB014E155F0534F42191203219F04F5FEA
:104030005F4FF7CF49305105B9F0495051098A0116
:10404000081B190BA8018FEB94E00E941EF4F801E5
:10405000E154FB4F10828FEB94E00E94A8E980931B
:10406000E8112BC60097B1F2C8010E949D8F25C6AA
:104070000091D8071091D90783E0D12C40E08150FE
:10408000E9F0D8019C91292F2B7F2134C1F711969B
:104090002C912133A1F7913421F0953421F441E0A2
:1040A00002C0DD24D39498012E5F3F4F89012F5F1A
:1040B0003F4FF80190819032C9F3E1CF442369F07A
:1040C000E6E6F5E284917F012FEFE21AF20A8823F7
:1040D00021F00E94F3BFF701F5CFDD2069F0E6EE95
:1040E000F3E084917F013FEFE31AF30A882321F084
:1040F0000E94F3BFF701F5CFD8018D918D01882380
:1041000009F4CBCC0E94F3BFF7CF0E94A42DD5C5F4
:1041100081E080933D0580933C05CFC510923D051D
:1041200010923C05CAC588EC90E00E94B4758111DC
:10413000C4C584E40E94CF2C882309F441C00E94A6
:10414000982C6B017C0111E020E030E0A9010E9475
:1041500047EA811101C010E010935A1B20E030E0C3
:10416000A901C701B6010E9447EA882349F10E94CC
:10417000982CE091461BB4E0EB9FF0011124E15A2A
:10418000F44E608371838283938320E030E0A90141
:1041900060915F1B7091601B8091611B9091621B0D
:1041A0000E9447EA81110CC080E090E0A0EEBFE3DE
:1041B00080935F1B9093601BA093611BB093621B65
:1041C0000E9423BD7AC5F70181917F010E94CF2C07
:1041D000882351F00E94982C0E9434F2D8016D93EC
:1041E0007D938D939C9313970C5F1F4FBBE1083811
:1041F0001B0749F70E941BC760C515E4E12E12E0BA
:10420000F12E0AEE11E1F70181917F010E94CF2C7E
:10421000882341F00E94982CD8016D937D938D9353
:104220009C9313970C5F1F4FB1E10A3F1B0759F78F
:1042300044C583E50E94182D8823A1F00E94982C84
:1042400060931108709312088093130890931408D8
:1042500060930D0870930E0880930F0890931008D8
:1042600010E001C011E080E50E94182D882359F06C
:104270000E94982C60931108709312088093130881
:104280009093140810E082E50E94182D882359F0BD
:104290000E94982C60931508709316088093170855
:1042A0009093180810E084E50E94182D882359F097
:1042B0000E94982C60930D0870930E0880930F084D
:1042C00090931008FAC4112309F4F7C4409111081F
:1042D00050911208609113087091140880EF93E0D8
:1042E0000E94938640911508509116086091170816
:1042F000709118088DEE93E00E94938640910D080E
:1043000050910E0860910F08709110088AEE93E0AA
:104310000E9493868AE00E94F3BFCFC481E50E9489
:10432000CF2C8823C1F08091B4049091B5040097FC
:1043300039F04AE050E060E070E00E949BE803C082
:1043400060E070E0CB016093190870931A088093C5
:104350001B0890931C0883E50E94CF2C882351F002
:104360000E94982C60932108709322088093230860
:104370009093240884E50E94CF2C882351F00E945A
:10438000982C60931D0870931E0880931F089093CB
:10439000200888E50E94CF2C882351F00E94982C99
:1043A0006093FD077093FE078093FF0790930008CA
:1043B00089E50E94CF2C882351F00E94982C6093AD
:1043C00001087093020880930308909304088AE51B
:1043D0000E94CF2C882351F00E94982C60930508EE
:1043E00070930608809307089093080885E40E945C
:1043F000CF2C882309F461C40E94982C609309088B
:1044000070930A0880930B0890930C0856C4A5E497
:10441000CA2EA2E0DA2EBCE4EB2EB5E0FB2E10E0B3
:10442000F60181916F010E94CF2C882359F00E94E0
:10443000982CD7016D937D938D939C931397812F27
:104440000E94B5711F5FB4E0EB0EF11C133041F711
:104450000C9472190E94358F81112FC403EC11E264
:10446000EAE7F1E1AB96FFAFEEAFAB979E012F5FAE
:104470003F4F4901FCE1AF2EF2E2BF2E1901F801D6
:104480006591759185919491AB96AEADBFADAB97AB
:10449000CD90DD90ED90FD90AB96BFAFAEAFAB97FA
:1044A000A70196010E9432F12B013C01F1016083CA
:1044B00071838283938320E030E040EA51EC0E94D4
:1044C000FAF287FD0AC020E030E040EA51E4C3017F
:1044D000B2010E9447EA181634F4F50184911816C7
:1044E00014F40C942B2AD101CD90DD90ED90FD9029
:1044F0001D0120E030E040EA51ECC701B6010E9406
:10450000FAF287FD0AC020E030E040EA51E4C7013A
:10451000B6010E9447EA18166CF5E1E5F5E28491D0
:104520008F010F5F1F4F811103C0E0E0F4E004C072
:104530000E94F3BFF801F3CF84918F010F5F1F4FEB
:10454000882321F00E94F3BFF801F6CF87E294E0C0
:104550000E94B4A588E290E09EA38DA388EC90E031
:104560009AAB89ABBE016B5D7F4FCE01C1960E94B5
:104570006A92A3C30C5F1F4FBFEFAB1ABB0AE1E205
:104580000F3C1E0709F07BCFECE4EE2EE5E0FE2E9B
:1045900010E0F40181919191A191B1914F01F70146
:1045A00081939193A193B1937F01812F0E94B57163
:1045B0001F5F133071F70E94F0A985E394E00E9419
:1045C000B4A583E992E09AAB89AB04E610E01EA3A0
:1045D0000DA3BE016F5C7F4FCE0185960E946A924B
:1045E0008AEB92E09AAB89AB1EA30DA3BE016F5C70
:1045F0007F4FCE0185960E946A925FC383E50E9439
:10460000182D882309F459C30E94882C7093310215
:104610006093300252C38DED90E00E94B475811119
:104620004CC383E50E94182D811103C0E6E6F5E234
:104630003BC00091461B10E00E94882C000F111F08
:10464000F801EA5CFD4F718360838091461B90E026
:104650008C01000F111F000F111F9801285F3D4FA3
:104660007901880F991FFC01EA5CFD4F608171811F
:10467000072E000C880B990B0E944EEA2AE037EDBA
:1046800043E25CE30E94ADEAF801E55AF44E208172
:104690003181428153810E94ADEAD7016D937D93B0
:1046A0008D939C93139709C384918F010F5F1F4FC4
:1046B000882321F00E94F3BFF801F6CF85E40E9421
:1046C000F3BF8091461B805D0E94F3BFE091461BC3
:1046D000F0E0EE0FFF1FEA5CFD4F608171818EE11B
:1046E00094E00E94B08685E20E94F3BF8AE00E94B7
:1046F000F3BFE3C280E50E94CF2C882309F4DDC21A
:104700000E94882C6B017C0183E50E94182D882370
:1047100021F00E94882C8B0102C00FEF1FEFC8010F
:104720000196039708F0C9C2D7FCC7C28C2DE6E2F8
:10473000F4E09491891709F4C3C63196B4E0E335E7
:10474000FB07B9F794C68AE50E94182D8111BBC6F4
:1047500083E50E94182D8111B6C6AFC283E50E9481
:10476000182D882319F00E94882C02C064E071E0A3
:104770007EA36DA380E50E94182D882339F00E9446
:10478000882C6938E3E17E0730F402C068EE73E0FC
:104790007A83698304C088E893E19A838983BE01A0
:1047A0006B5D7F4FCE0101960E946A9286C285E4BE
:1047B0000E94182D811110C080E50E94CF2C882303
:1047C00091F00E94982C6093BD1B7093BE1B809348
:1047D000BF1B9093C01B07C00E94A075882361F384
:1047E000E1E5F5E271C089E40E94CF2C882381F0D5
:1047F0000E94982C2CEA35EC47E25EE30E94ADEA79
:104800006093B91B7093BA1B8093BB1B9093BC1B26
:1048100084E40E94CF2C882381F00E94982C2CEAFB
:1048200035EC47E25EE30E94BBF16093C11B7093DD
:10483000C21B8093C31B9093C41BE6E6F5E28491F0
:104840008F010F5F1F4F882321F00E94F3BFF801F3
:10485000F6CF4091BD1B5091BE1B6091BF1B709164
:10486000C01B8CE694E00E9493862CEA35EC47E26C
:104870005EE36091B91B7091BA1B8091BB1B909154
:10488000BC1B0E94BBF1AB01BC0188E694E00E9416
:1048900093862CEA35EC47E25EE36091C11B709190
:1048A000C21B8091C31B9091C41B0E94ADEAAB0157
:1048B000BC0184E694E00E9493868AE00E94F3BFE4
:1048C000FCC10E94F3BFF80184918F010F5F1F4F5D
:1048D0008111F7CFE0E7F4E084918F010F5F1F4F64
:1048E000882309F4EAC10E94F3BFF801F5CF83E5FC
:1048F0000E94CF2C182F882371F00E94982C0E94C0
:104900002DF270930D0260930C0221E0672B09F0E9
:1049100020E02093270880E50E94CF2C882359F0BF
:1049200020910C0230910D02232B11F00E94F6759C
:1049300080932708C2C11111C0C1E6E6F5E2849157
:104940008F010F5F1F4F882321F00E94F3BFF801F2
:10495000F6CF80912708882319F065E074E002C043
:1049600068E074E087E994E00E94C98660910C02D7
:1049700070910D0286E894E00E94B086E2E8F4E0CF
:1049800084918F010F5F1F4F882309F496C10E9405
:10499000F3BFF801F5CF85E40E94182D882321F09C
:1049A0000E94882C8B0102C000E010E083E40E948A
:1049B000182D81110E94882C85E50E94182D8823CE
:1049C00019F00E94F67503C085E50E94CF2C83E59F
:1049D0000E94182D81110E94982C012B09F06DC1A5
:1049E0001092461B6AC10E94F3BFF80184918F01A7
:1049F0000F5F1F4F8111F7CFEAEAF4E084918F0136
:104A00000F5F1F4F882309F458C10E94F3BFF801BC
:104A1000F5CF0E94146451C183E50E94CF2C8823F6
:104A200049F00E94F675182F811106C080E00E949F
:104A30003D7802C01091FC0780917A1190917B1112
:104A4000A0917C11B0917D1189839A83AB83BC8343
:104A500080917E1190917F11A0918011B091811170
:104A60008D839E83AF83B88780918211909183114B
:104A7000A0918411B091851189879A87AB87BC87F3
:104A800086E50E94CF2C882321F086EE94E00E94D8
:104A90002492812F0E943D78111103C0E6E6F5E2D1
:104AA0001DC08091FC078111F9CFE1E5F5E2849109
:104AB0008F010F5F1F4F811103C0E7ECF4E004C0CA
:104AC0000E94F3BFF801F3CF84918F010F5F1F4F56
:104AD000882321F30E94F3BFF801F6CF84918F0160
:104AE0000F5F1F4F882321F00E94F3BFF801F6CF1C
:104AF0008091FC07882319F06CE074E002C060E14B
:104B000074E089EB94E00E94C9868AE00E94F3BFBA
:104B10004CE050E06AE771E1CE0101960E9411F489
:104B2000892B09F4CAC00E94F0A9C7C00E940F34A3
:104B3000C4C081E08093B6040E94DB2E1092B604BC
:104B4000882309F4BAC0E6E6F5E284918F010F5F8D
:104B50001F4F811103C0E3E0F5E004C00E94F3BFE2
:104B6000F801F3CF84918F010F5F1F4F882309F461
:104B7000A4C00E94F3BFF801F5CF0E94C0A79DC05A
:104B80008BE592E00E94B475811197C085E50E9483
:104B9000CF2C8823E9F00091461B10E00E94982C4E
:104BA0006B017C0120E030E0A9010E94FAF287FF4E
:104BB00004C0F7FAF094F7F8F094000F111F000FFB
:104BC000111FF801E554FB4FC082D182E282F382CB
:104BD0008CE40E94CF2C882309F46FC00091461BFF
:104BE00010E00E94982C6B017C0120E030E0A901CC
:104BF0000E94FAF287FF04C0F7FAF094F7F8F094F5
:104C0000000F111F000F111FF801E954FB4FC08264
:104C1000D182E282F38251C00E94FA924EC0F0909B
:104C2000DA070E9414641091FC0780E00E943D782E
:104C3000FF2029F1E6E6F5E284918F010F5F1F4F17
:104C4000882321F00E94F3BFF801F6CF84E50E948B
:104C5000F3BF6F2D70E080E090E04AE00E94FABF61
:104C600080E20E94F3BFE0E2F5E084918F010F5FE4
:104C70001F4F882311F10E94F3BFF801F6CF109265
:104C80006505812F0E943D78E6E6F5E284918F016B
:104C90000F5F1F4F882321F00E94F3BFF801F6CF6A
:104CA0006091650570E08EE095E00E94B0868AE034
:104CB0000E94F3BF02C00E94FA920E94699C92C4B3
:104CC0000E94146480E00E943D780E94C26F11E04F
:104CD00010933D0588E50E94CF2CB82E89E50E94EF
:104CE000CF2C082F8AE50E94CF2CA82EB11004C02B
:104CF000011104C01A2505C0011102C010E001C055
:104D00001A2D0E94252D82E50E94182D882361F01E
:104D10000E94982C6B017C0120E030E0A9010E94E8
:104D200047EA882371F106C0C12CD12CE0E8EE2EB1
:104D3000E0E4FE2E111104C0B11002C0002391F175
:104D4000C092E407D092E507E092E607F092E70709
:104D5000A701960160918211709183118091841155
:104D6000909185110E9447EA87FF0BC019821A8231
:104D70001B821C82BE016F5F7F4F84EE97E00E9412
:104D8000F470111105C0B11003C0011106C00AC0B2
:104D900080E00E94E6941123C1F381E00E94E69432
:104DA000111103C0AA2009F454C0809169118370C5
:104DB0008330C9F0E6E6F5E284918F010F5F1F4F63
:104DC000811103C0EFEEF2E004C00E94F3BFF801CE
:104DD000F3CF84918F010F5F1F4F8823D1F10E9481
:104DE000F3BFF801F6CF0E94597580E090E0ACE483
:104DF000B3E48093DC079093DD07A093DE07B093C4
:104E0000DF078093E0079093E107A093E207B09358
:104E1000E3078091821190918311A0918411B09148
:104E200085118093E4079093E507A093E607B0937C
:104E3000E70719821A821B821C82AE014F5F5F4F07
:104E400060EE77E08CED97E00E94D27082E00E94E5
:104E5000E6940E94597580913C0580933D050E941F
:104E6000A96F0E94F0A929CF80E090E0ACE4B3E400
:104E700089839A83AB83BC838D839E83AF83B887FA
:104E800019861A861B861C8640E050E060EC71E4AF
:104E90004D875E876F87788B898B9A8BAB8BBC8BAA
:104EA0001D8A1E8A1F8A188E80E090E0A4EEB2E46C
:104EB000898F9A8FAB8FBC8F80E090E0A0E8B0E440
:104EC0008D8F9E8FAF8FB8A319A21AA21BA21CA20E
:104ED000D090FC078AE40E94CF2C882319F00E940E
:104EE000AB7DEBCE86E50E94182D882321F00E9431
:104EF000882C1B0102C0212C312C95E0291631048D
:104F000068F0EDE3F3E084918F010F5F1F4F88237A
:104F100009F4D3CE0E94F3BFF801F5CF84E40E94D8
:104F2000182D882319F00E94F67503C084E40E94AE
:104F3000CF2CAE968FAFAE972114310401F1E7E28A
:104F4000F3E084918F010F5F1F4F882321F00E94AF
:104F5000F3BFF801F6CFAE96AFADAE97AA2361F0DE
:104F6000EDE1F3E084918F010F5F1F4F882321F063
:104F70000E94F3BFF801F6CF8AE00E94F3BF0E94BF
:104F8000146480E00E943D7881E00E9413718823C0
:104F900021F08D2D0E943D7890CE0E94C26F85E455
:104FA0000E94182D882339F00E94F675882339F065
:104FB000CC24C39406C085E40E94CF2CF7CF72E0C6
:104FC000C72E8E010F5F1F4F7E01B5E2EB0EF11C65
:104FD000F80180819181A281B38125968CAF9DAF2C
:104FE000AEAFBFAF259784819581A681B781219609
:104FF0008CAF9DAFAEAFBFAF2197222D4C2DBE0120
:10500000635C7F4FCE018F5B9F4F0E94DC8FAD961C
:105010006CAF7DAF8EAF9FAFAD979B01AC010E948F
:1050200080F3882321F08D2D0E943D781EC1AD961E
:105030008CAD9DADAEADBFADAD97F80180879187CA
:10504000A287B387045F1F4F0E151F0509F6AE96A2
:10505000EFADAE97E11109C1CD84DE84EF84F8880D
:1050600049885A886B887C888D889E88AF88B88CE0
:10507000A501940169A17AA18BA19CA10E9432F1A2
:10508000E2966CAF7DAF8EAF9FAFE297A301920126
:105090006D8D7E8D8F8D98A10E9432F1E6966CAF5A
:1050A0007DAF8EAF9FAFE697A7019601698D7A8D90
:1050B0008B8D9C8D0E9432F1EA966CAF7DAF8EAFE6
:1050C0009FAFEA97A501940169857A858B859C85B8
:1050D0000E9432F14B015C01A301920160E070E09B
:1050E0008CE493E40E9432F12B013C01A70196016C
:1050F00060E070E08CE493E40E9432F16B017C018B
:10510000E2962CAD3DAD4EAD5FADE297C301B2016D
:105110000E94ADEAEE966CAF7DAF8EAF9FAFEE977B
:10512000E6962CAD3DAD4EAD5FADE697C501B40141
:105130000E94ADEA9B01AC01EE966CAD7DAD8EADEB
:105140009FADEE970E9432F16DA37EA38FA398A727
:10515000EA962CAD3DAD4EAD5FADEA97C501B40109
:105160000E94ADEA4B015C01E2962CAD3DAD4EAD27
:105170005FADE297C701B6010E94ADEA9B01AC01A9
:10518000C501B4010E9432F169A77AA78BA79CA739
:10519000E6962CAD3DAD4EAD5FADE697C701B601CD
:1051A0000E94ADEA6B017C01EA962CAD3DAD4EAD9F
:1051B0005FADEA97C301B2010E94ADEA9B01AC0169
:1051C000C701B6010E9432F16DA77EA78FA798ABE9
:1051D000CE0185960E9418B74DA05EA06FA078A45E
:1051E000C9A4DAA4EBA4FCA48DA49EA4AFA4B8A87F
:1051F00020E030E0A901C501B4010E9447EA87FF21
:105200000CC077FA709477F87094F7FAF094F7F886
:10521000F094B7FAB094B7F8B0944DA25EA26FA222
:1052200078A60C2DC9A6DAA6EBA6FCA6482D8DA65D
:105230009EA6AFA6B8AAC42CDEA0EFA0F8A41AA51B
:105240002BA53CA55EA56FA578A9CE018B5B9F4FD2
:105250000E94B0B784E2FE01EB5BFF4FAEEAB4E11F
:1052600001900D928A95E1F7D12C80E00E94137194
:10527000882321F08D2D0E943D78A2C0AD962CADE3
:105280003DAD4EAD5FADAD97CA01B9010E9480F34F
:10529000811196C0232821F08EEF92E00E94249283
:1052A000AE96FFADAE97F11188C08CE0EAE7F1E170
:1052B000DE01D19601900D928A95E1F781E080930D
:1052C000FC07CE01C1960E94916425962CAD3DADA0
:1052D0004EAD5FAD259760917A1170917B118091F1
:1052E0007C1190917D110E9432F16B017C012DEBBC
:1052F00037E346E855EB0E94FAF287FD53C02DEBE9
:1053000037E346E855E3C701B6010E9447EA18169D
:105310000CF448C021962CAD3DAD4EAD5FAD21974C
:1053200060917E1170917F11809180119091811117
:105330000E9432F16B017C012DEB37E346E855EB1F
:105340000E94FAF287FD2EC02DEB37E346E855E3C5
:10535000C701B6010E9447EA181624F1AD962CAD9C
:105360003DAD4EAD5FADAD976091821170918311EF
:1053700080918411909185110E9432F16B017C0122
:1053800029AD3AAD4BAD5CAD0E9432F160933F0860
:10539000709340088093410890934208C9AEDAAEFA
:1053A000EBAEFCAE8CE0FE01F196AAE7B1E1019014
:1053B0000D928A95E1F781E001C08D2D8093FC0765
:1053C0000E94A96F8091FC0781110E9459750E946B
:1053D000F0A973CC0E94882CAB01BC01409321162C
:1053E0005093221660932316709324168DEC95E14A
:1053F0000E94AE4062CC0E94146488E50E94CF2CCB
:10540000882331F08A9A809169118E7F8093691187
:1054100089E50E94CF2C882331F08E9A8091691102
:105420008D7F809369118AE50E94CF2C882359F0E3
:1054300080910801809584708093060180916911A4
:105440008B7F8093691185E40E94CF2C882309F417
:1054500034CC149A32CCF7FAF094F7F8F094D101E6
:10546000CD92DD92ED92FC9213970C9473220E94E0
:105470001464BC2C60E08C2D0E94D2D30F3FBFEF90
:105480001B0759F48C2D0E947AD331E020E0892B40
:1054900009F030E0032F122F05C00130110569F427
:1054A00001E010E08B2D0E947AD38017910709F458
:1054B00004CC80E00E94F096F5CF00E010E0F2CF3F
:1054C0000E940676FACB0E94982C20E030E040E063
:1054D00050EC0E9447EA87FD15C00E94982C20E0FE
:1054E00030E040E050E40E94FAF218162CF00E94DE
:1054F000982C6B017C010BC0C12CD12CE12C30E429
:10550000F32E05C0C12CD12CE12C20ECF22E809181
:10551000691182FF18C00091411B1091421B20911C
:10552000A3113091A4114091A5115091A611C7016A
:10553000B6010E94ADEA0E942DF2600F711F7093B8
:10554000421B6093411B80E50E94CF2C882329F0E9
:105550000E94F675882309F4B0CBA70196016091EB
:1055600076117091771180917811909179110E9444
:1055700033F1609376117093771180937811909343
:105580007911E6E6F5E284918F010F5F1F4F8823C2
:1055900021F00E94F3BFF801F6CF409176115091AF
:1055A0007711609178117091791183E594E00E94F0
:1055B00093868AE00E94F3BF80CB61E0812F0E9436
:1055C000D2D36E2D812F0E94A3D3F12CB701812F4E
:1055D0000E940ED41C3209F070CBF0922608E092A3
:1055E00025086BCBC358DF4F0FB6F894DEBF0FBE54
:1055F000CDBFDF91CF911F910F91FF90EF90DF9082
:10560000CF90BF90AF909F908F907F906F905F9062
:105610004F903F902F90089580E090E0089585EDA1
:105620008093BC008091BC0084FDFCCF10923711A8
:1056300008951F93CF93DF93182F6115710519F407
:10564000E4E6F7E00AC0FB018491EF01219688238C
:10565000B9F30E94F3BFFE01F7CF8491EF012196C9
:10566000882321F00E94F3BFFE01F7CF111103C080
:10567000EFE5F7E002C0E5E5F7E08491EF01219660
:10568000882321F00E94F3BFFE01F7CF8AE0DF916B
:10569000CF911F910C94F3BFCF93DF93863D914040
:1056A000B1F0E1E5F5E28491EF012196882321F044
:1056B0000E94F3BFFE01F7CFEDEFF6E08491EF011A
:1056C0002196882331F00E94F3BFFE01F7CF80E0DE
:1056D00001C081E0DF91CF9108958F929F92AF92A8
:1056E000BF92CF92DF92EF92FF920F93CF93DF930F
:1056F0001F92CDB7DEB77C015B016A014901809141
:10570000B3078823E9F0F70180819181C80ED91E83
:10571000D182C08222C001111DC0BE016F5F7F4FC8
:10572000C4010E949C67F701808191810196918359
:105730008083FFEFAF1ABF0A81E0C81AD10869F071
:10574000F701808191810E9487F089839091B6044E
:105750009111E1CFF5018083E0CF0F90DF91CF91E0
:105760000F91FF90EF90DF90CF90BF90AF909F9000
:105770008F9008957F928F929F92AF92BF92CF9217
:10578000DF92EF92FF920F931F93CF93DF931F92BD
:10579000CDB7DEB7E091B307EE2341F0FC012081E5
:1057A0003181420F531F5183408349C069017C01FD
:1057B0005B018B01040F151FA016B10609F43FC051
:1057C000F70180809180F50171905F017982C401B9
:1057D0000E9487F0781631F1672DC4010E94B1F064
:1057E000C4010E9487F099818917E1F0E6E6F5E2AD
:1057F00084918F010F5F1F4F882321F00E94F3BF18
:10580000F801F6CFE3EEF6E084918F010F5F1F4FB2
:10581000882321F00E94F3BFF801F6CF81E0809346
:10582000B3070DC0BE016F5F7F4FC6010E949C672A
:10583000F70180819181019691838083BDCF0F9084
:10584000DF91CF911F910F91FF90EF90DF90CF905C
:10585000BF90AF909F908F907F900895CF93DF93EC
:10586000CDB7DEB72C970FB6F894DEBF0FBECDBF15
:1058700080917A1190917B11A0917C11B0917D1152
:1058800089839A83AB83BC8380917E1190917F1131
:10589000A0918011B09181118D839E83AF83B887D1
:1058A0008091821190918311A0918411B091851102
:1058B00089879A87AB87BC870E941BC70E9423BD3C
:1058C00080E00E94B57181E00E94B57182E00E9483
:1058D000B5710E9450C84CE050E06AE771E1CE011A
:1058E00001960E9411F4892B51F02C960FB6F89472
:1058F000DEBF0FBECDBFDF91CF910C94F0A92C96E7
:105900000FB6F894DEBF0FBECDBFDF91CF910895E3
:105910008091B4049091B504009731F04AE050E0D2
:1059200060E070E00C946DE760E070E0CB010895FA
:105930000F931F93CF938091B4049091B504009777
:1059400011F1FC018F01C1912C2F2F7DA9F0C534DD
:1059500011F0C536B9F7F801108260E070E080916F
:10596000B4049091B5040E9411E6F801C083562F4B
:10597000472F382F292F0BC060E070E0CF911F9187
:105980000F910C9411E650E040E030E020E0652FEC
:10599000742F832F922FCF911F910F9108958154CF
:1059A0008A3108F042C0E82FF0E04091991C5091F4
:1059B0009A1C60919B1C70919C1C04C07695679505
:1059C000579547958A95D2F7842F817040FF2FC055
:1059D000E158F34E9081992309F1E0910F11F09174
:1059E0001011E90FF11D908120ED290F2A3098F058
:1059F0009E3211F491810CC09D3211F09B3271F4F2
:105A0000918120ED290F2A3030F09E3239F49281B5
:105A100090539A3018F42E2F9F2F02C020E090E070
:105A20002093B4049093B504089580E008950895F8
:105A30000E94CF2C882341F081E02091B404309162
:105A4000B504232B09F480E0089580E1EAE7F1E151
:105A5000ACEDB7E001900D928A95E1F7089580E1F1
:105A6000ECEDF7E0AAE7B1E101900D928A95E1F73C
:105A7000089580913D05811105C080913E058111F9
:105A800001C00895909109018091B70791FD02C06E
:105A9000806101C08F7E8093B7079091090180914A
:105AA000B70793FD02C0806201C08F7D8093B70766
:105AB000909109018091B70796FD02C0846001C0F2
:105AC0008B7F8093B7078091C51080FF10C08091B5
:105AD000C41080FD0CC08091B70784FF08C080917E
